:100000000C9426040C945E040C945E040C945E0420
:100010000C945E040C945E040C945E040C945E04D8
:100020000C945E040C945E040C94AF2A0C946B2A1E
:100030000C94AC2B0C945E040C945E040C945E0443
:100040000C945E040C945E040C945E040C945E04A8
:100050000C945E040C94882B0C945E040C945E0447
:100060000C945E040C945E040C945E040C945E0488
:100070000C945E040C945E040C945E040C945E0478
:100080000C945E040C945E040C945E040C945E0468
:100090000C945E040C945E040C945E040C945E0458
:1000A0000C945E040C945E040C945E0405010980BB
:1000B000A101850319012AB700150126B700950192
:1000C00075108100C0050C0901A101850419012AE0
:1000D000A002150126A002950175108100C005013E
:1000E0000906A1018506050719E029E71500250184
:1000F0009508750181020507190029EF15002501F2
:1001000095F075018102050819012905950575010C
:100110009102950175039101C00660FF0961A1017B
:100120000962150026FF00952075088102096315F4
:100130000026FF00952075089102C005010906A15F
:1001400001050719E029E7150025019508750181CA
:10015000029501750881010507190029FF15002680
:10016000FF00950675088100050819012905950508
:1001700075019102950175039101C0FD377A585AB6
:10018000000004E6D6B44602002101160000007407
:100190002FE5A3E008C702295D003D8889C65436D3
:1001A000C3174FE4E176CBBFB38935FC70D6EF12AD
:1001B0002923CFCDC46A1EAC923A7DE2069E947A82
:1001C0008EFC5602FF7703C4B750C704F074F4A046
:1001D000C7A56850966F330EB42093728B134B2FC4
:1001E00018497FE6E823765F5F3015CA1B2EEA3296
:1001F000C2E5CCE2106E215606C64F609010F0DAD0
:10020000FD531726146047CD079053D7A11D05C98C
:1002100096D256F207A966D2FF8F9C400C24181084
:100220003455B98C8D56A046761A4AA0CE3652F374
:100230002E424F4B556C0D41DED4548909804191BB
:10024000FB4AD76B6D06BEB2E90552D73D96A36D4A
:10025000C411419C2057E1F4481F34D00A8803643C
:100260009A0E9A414D5F9042B3CCF0D4FAAFCA32A5
:1002700007B0476617B70C54485B5517EE8B48F923
:100280009898747027E6761B74DF6DDF576D1787BB
:100290002EA2C6BB54134FFF7E7235AA6C29B45BE5
:1002A000C6B1B96DE5F5D567120CB8FCAFED1FBE50
:1002B000358E0CB17D8A54B721DEAD3F823323C128
:1002C000010BB5820773702453153CB19DC152993F
:1002D0005653E8CC6C1FAD276954601970653C79A2
:1002E000CF4ACCB815D73F79371FDA758D07D222A0
:1002F000061EBDE6E2FE5D71BC07AEF27AC4D5DC37
:100300003D1C709340A855C6526ECACFFB5791CD85
:100310004582D2D00CE5AFEDC9E7B1E7A243163D67
:100320004FE5B7AB1334E681DAE6CEDFF4256EACE9
:10033000E69DA1D9512312B8E9600380CCAB1150DE
:10034000A440BF998EF2D17034545E649585609E4E
:1003500071C460CD3730C4A910CA2ED682BEE1ADBB
:1003600065209E217D4FE315F31E9ED25D6492BEF3
:100370003F2EBD67C0D8D3E400AE1BF05767BEB8B0
:10038000F39E381DD46C8EA9EFFAA35518BB4B56BB
:10039000C9A6A8F7CD7E6102A2E3964C0180E81DB4
:1003A000AD52048FA5F03152F5D26EABD225BA2BE7
:1003B0006F92CA84A04D2830E639AD3F0F257D806D
:1003C00079AF5E00000000235FF6194F62266800D7
:1003D00001C504C8110000B4F2EDD9B1C467FB0235
:1003E0000000000004595AA900AA0000000000C53E
:1003F0005CC65C00000000C95CCA5C00000000C371
:100400005CC45C0000000029001A0015001C000CF0
:100410000013002A005F0061001400080017001894
:100420000012002F000000600056002B001600098B
:10043000000B000E00330028005C005E0004000783
:10044000000A000D000F00340000005D005700D7C7
:100450005C1B001900110036003800520059005B87
:10046000001D000600050010003700D85C00005A8F
:10047000005500E00002510000000003510151004E
:10048000004F006300E2002C4200002C43E7745050
:1004900000510062005843005C3B003D003F0041BA
:1004A0000043004C004A004B003A003C003E004034
:1004B000004200300000000000000039004500004C
:1004C00000000000000000000000000000440000E8
:1004D00000000000000000000000000000550001C6
:1004E00000000047004900E30000004B004D004EB3
:1004F000000000460048006500E700010000000021
:10050000005400E4000100000000000100010000B0
:10051000004D004C00010000000000000001004AF6
:10052000004E0049002E0035001F00210023002549
:100530000027002E00000000001E002000220024E2
:100540000026002D0000000000000035021F0221DF
:1005500002230225022F003100000000001E0220AD
:1005600002220224022D02300000000000000001DF
:10057000000000000000000000000000000000007B
:100580000064000000000000000000010000000006
:100590000000000100010000000000010001000057
:1005A0000000000000010000000000000001000049
:1005B0000000000000000035021F02210223022576
:1005C0000227022E02530055001E0220022202249E
:1005D0000226022D0200005400000001000000006D
:1005E00000000000002F0231024600480000000019
:1005F0000000000000000030020000470000000181
:1006000000000000000000000000000000000000EA
:100610000064020000000000000000010000000073
:1006200000000001000100000000000100010000C6
:1006300000000000000100000000000000010000B8
:10064000000000000001000100010022049C0DCF09
:100650000D0000020002001E049C0DCF0D000003DF
:1006600000010023049C0DCF0D00000400020008CF
:10067000049C0DCF0DDB070500010024049C0DCF69
:100680000D0000060002000A049C0DCF0D000007BB
:1006900000020020049C0DCF0D0000080001002581
:1006A000049C0DCF0D00001200020026049C0DCF0B
:1006B0000D00001300020028049C0DCF0D00001453
:1006C0000001002A049C0DCF0D0000150000000061
:1006D000006107A414000009025B00030100A0FAF6
:1006E0000904000001030101000921110100012298
:1006F000400007058103080001090401000203000E
:1007000000000921110100012222000705820320B7
:100710000001070503032000010904020001030092
:100720000000092111010001226D0007058403204A
:1007300000011201000200000008504E574B01005A
:10074000010203011C037600690061006C003A009D
:10075000660036003400630032006200330063003C
:10076000000018034B0061007300740065006E0008
:1007700077006100670065006E0000001A034E00FC
:100780006F00500075006E0049006E0031003000AF
:100790004400690064000000040309040000000034
:1007A0000000000000000000000000000000000049
:1007B0000000000000000000000000000000000039
:1007C0007E0F00D4FFFFFFC700000078000000008C
:1007D000000000002A2B280000000000000000009C
:1007E0000000000000000029000000002C1E342042
:1007F000212224342627252E362D3738271E1F2068
:100800002122232425263333362E37381F040506AC
:100810000708090A0B0C0D0E0F10111213141516F0
:100820001718191A1B1C1D2F3130232D35040506EE
:100830000708090A0B0C0D0E0F10111213141516D0
:100840001718191A1B1C1D2F3130354C11241FBECF
:10085000CFEFDAE0DEBFCDBF04B603FE18C0809153
:10086000310590913205A0913305B0913405873060
:10087000904BA740B04B59F41092310510923205BD
:100880001092330510923405E0E0F8E3099511E089
:10089000A0E0B1E0E0E6FAE602C005900D92A038D3
:1008A000B107D9F725E0A0E8B1E001C01D92A1335E
:1008B000B207E1F70E94D32B0C9403350C9400008F
:1008C000E8EDF0E080818E7F80831092E20010924C
:1008D000DA001092E100A0EEB0E08C9181608C9380
:1008E00080818F77808319BCA7EDB0E08C918E7FDB
:1008F0008C9380818F7E80831092000508952091D3
:10090000E4003091E50095E6A9012091EC00822FEA
:10091000817020FF06C08091E80080FF06C080E063
:1009200008952091E80022FD1AC080912E058823A9
:1009300089F0853089F08091EB0085FD0FC0209112
:10094000E4003091E50042175307F9F29150E1F6C7
:1009500084E0089582E0089583E0089581E0089599
:10096000EF92FF920F931F93CF937C018B010E9414
:100970007F04C82F811117C08091E80085FD0BC04E
:100980008091E8008E778093E8000E947F0488239E
:1009900099F3C82F08C0F70181917F018093F1007E
:1009A0000150110949F78C2FCF911F910F91FF90A2
:1009B000EF900895CF93FC0180912E05843001F5CE
:1009C000C091E900CF702091EC00922F917020FD32
:1009D00090E8C92B82E08093E9008091E80080FFD5
:1009E0000CC050E040E060E270E0CF010E94B00433
:1009F0008091E8008E778093E800CF70C093E90083
:100A0000CF9108958091260587FF13C08091E8005B
:100A100082FF06C08091E8008B778093E80004C0D5
:100A200080912E058111F2CF089580912E058823A3
:100A3000D9F38091E80080FFF8CF8091E8008E77AD
:100A4000ECCF982F9093E900242F762F50E0891750
:100A500031F07091EC002091ED005091F00021FDFB
:100A600007C09F5F973071F78093E90081E0089598
:100A70003091EB003E7F3093EB003091ED003D7FF5
:100A80003093ED003091EB0031603093EB007093C8
:100A9000EC002093ED005093F0002091EE0027FD34
:100AA000E0CF80E00895B0E0A0E0E9E5F5E00C9447
:100AB0004234C8EDD0E088818F7E8883E7EDF0E096
:100AC00080818160808384E082BF81E08093000523
:100AD00088818E7F888302EE10E0F80110821092E8
:100AE000DA0081EEC82ED12CF601108288818F7732
:100AF000888388818068888388818F7D888319BCFA
:100B000010922E05109225051092240510922305AF
:100B100090EEE92EF12CF70180818B7F8083888114
:100B20008160888342E060E080E00E942105F60158
:100B300080818E7F8083F8018081816080838081C5
:100B400088608083F70180818E7F808388818061C7
:100B50008883CDB7DEB7E8E00C945E34FC01809169
:100B60002C0590912D0586179707A0F0611571054A
:100B700029F49091E8009E779093E80090E0611549
:100B8000710551F4911108C08091E80082FF34C0D2
:100B900080E00895BC01F2CF80912E058823C1F139
:100BA0008530C1F18091E80083FD30C08091E8007C
:100BB00082FDEACF8091E80080FFE1CF8091F300D1
:100BC0002091F200382F6115710519F02830310598
:100BD00058F091E02830310509F090E02091E800CC
:100BE0002E772093E800CBCF81918093F100615064
:100BF00071092F5F3F4FE7CF80912E05882341F089
:100C0000853041F08091E80083FFBECF81E00895F8
:100C100082E0089583E00895089508958091020583
:100C200008959C014FB7F8948091F7049091F804CF
:100C3000A091F904B091FA044FBF821B930B089561
:100C40002FB7F8946091F7047091F8048091F9043B
:100C50009091FA042FBF08952FB7F8948091F7046C
:100C60009091F804A091F904B091FA042FBF08956F
:100C7000209111012223C1F02091FB0427FF14C011
:100C8000E62FE695E695E695EE31F8F4E80FF92FB4
:100C9000F11D677021E030E001C0220F6A95EAF78C
:100CA0008281822B82830895FC0132962FEF30E0FF
:100CB0004191641751F02F3F19F4411101C0232FC6
:100CC0003F5F3630A9F72F3F09F40895820F911D39
:100CD00027FD9A95FC01628308952091F4043091D8
:100CE000F5042817390771F09093F5048093F40404
:100CF000E091F204F091F304309721F00084F18543
:100D0000E02D099508952091F0043091F104281701
:100D1000390771F09093F1048093F004E091F204AC
:100D2000F091F304309721F00680F781E02D0995CA
:100D30000895E091F204F091F304309729F00190C6
:100D4000F081E02D0995089580E00895CF93DF9319
:100D5000EC014091E0045091E1046091E204709153
:100D6000E3042FB7F8948091F7049091F804A091D0
:100D7000F904B091FA042FBF841B950BA60BB70B97
:100D8000843F9140A105B10518F58091E004909150
:100D9000E104A091E204B091E3048093DC04909319
:100DA000DD04A093DE04B093DF0484EF91E0A0E0C3
:100DB000B0E08093D8049093D904A093DA04B09360
:100DC000DB04D093E804C093E704DF91CF9108954A
:100DD0000E9420066093DC047093DD048093DE049F
:100DE0009093DF0482E390E0A0E0B0E0E2CFFC016A
:100DF0008481862351F492819923B9F069238085F7
:100E000083FF05C081E061110FC080E00895892F44
:100E10008F7092959F70982B862F8F7062956F7050
:100E2000682B81E09613F1CF089581E0FDCF452B2B
:100E300039F0682381E06F3F09F080E08170089508
:100E400081E0FCCFDC016091D4048091D504962F21
:100E5000891301C00895292F30E0F901EE0FFF1F1B
:100E6000E453FB4F408151814A175B07A1F487E0AF
:100E70008A9FA0018B9F500D11244C565B4F81E03F
:100E8000FA0184839613E6CF2F5F3F4F23703327F9
:100E90002093D40408952F5F3F4F922F9370D8CFA3
:100EA0001092310410923004E4E9F4E0858181115C
:100EB00002C014821682379684E0EC3CF807B1F742
:100EC0000895B0E0A0E0E7E6F7E00C9440348FEF3F
:100ED0009FEF4430510508F469C04091FB0441FB89
:100EE000882780F990E0880F991F42FB002700F9BE
:100EF00010E0000F111F000F111F802B912B40FBE2
:100F0000CC24C0F8D12C8C299D2943FB222720F921
:100F1000C22FE0E0DE2F53E0CC0FDD1F5A95E1F742
:100F20008C2B9D2B44FBAA27A0F9B0E0E4E0AA0F8C
:100F3000BB1FEA95E1F78A2B9B2B45FBEE27E0F9D7
:100F4000F0E0A5E0EE0FFF1FAA95E1F78E2B9F2B97
:100F500046FB222720F930E0B6E0220F331FBA9576
:100F6000E1F7822B932B47FB222720F930E03695BF
:100F7000322F222737952795822B932B2091FC0423
:100F8000322F3170F32EE82EF92A26952170B22ED9
:100F9000BB0CA82EBF28C501BB0CAA0BBB0BFB01C9
:100FA00080839183A283B38390E080E0CDB7DEB7E6
:100FB000EAE00C945C3480910804909109049093C9
:100FC0000E0180930D010895E6E9F2E090E080E0E3
:100FD00060ED79E247EF59E225E439E277836683F1
:100FE00051874087338722879587848701963E966D
:100FF0008830910599F7089581152CE5920741F401
:101000002091E1033091E203232B11F490E080E082
:10101000089580E00895F894E82FE295EF70F0E0ED
:1010200031A1282F2F7081E090E001C0880F2A9510
:10103000EAF7982F9095932391A392A1892B82A3ED
:10104000789408959091FB0492FF06C0282F287190
:101050002830F9F4877F846093FF06C0282F287119
:101060002831F1F4877E84612091FC0420FF06C0C2
:10107000382F38713830D9F4877F816021FF06C05E
:10108000282F28712831D1F4877E816194FD877ED5
:101090000895282F24712430F9F68B7F8860DCCFE7
:1010A000282F2471243101F78B7E8861DDCF382F02
:1010B0003171313019F78E7F8860E0CF282F217190
:1010C000213121F78E7E8861E1CFCF93DF93EC0150
:1010D00082389105B1F108F040C08133910509F4DF
:1010E0009DC048F58932910509F48DC08A9709F4AD
:1010F0009CC0C11522E5D20708F0BDC0C11531E57D
:10110000D30708F025C1C83ED10508F0A3C0C13EF1
:10111000D10588F5C83AD10508F08EC0C53AD10589
:1011200008F0F6C0C130D10531F1209721F1C4306B
:10113000D10508F545C08533910509F45FC0C9970D
:10114000C1F68091FB04837009F037C18091FC04E3
:1011500083FF11C0C9E2D0E00EC0833E910599F132
:1011600070F4803E910501F1823E910511F6809167
:10117000FB0482FD21C0CE01DF91CF910895863E10
:10118000910561F1873E910571F1843E910509F069
:10119000B0CF8091FC0481FFEECF8091FB04C7EEBD
:1011A000D0E084FD0DC0E7CF8091FB0480FD33C00B
:1011B0009091FC0490FFDFCFC3EED0E084FFDBCF43
:1011C000D0E0C0E0D8CF8091FB0482FDF3C09091C5
:1011D000FC0490FDF2C084FFCECFF2CF8091FB04DF
:1011E00083FDDDCFC8CF8091FB0483FDE9C09091E2
:1011F000FC0491FFF0CFC4EED0E0BDCF8091FB04A2
:1012000085FFB9CFA7CF8091FB0485FDDCC080911D
:10121000FC0483FFB0CFC9E3D0E0ADCF8091FB04E5
:1012200086FFA9CFCAE2D0E0A6CF8091FB0486FF5B
:10123000A2CFC1E3D0E09FCFCF3BD10508F6C85A7B
:10124000D0E0CC0FDD1FC35EDE4F0990D881C02DEA
:10125000D46491CFC11540E5D40708F064C0C1152E
:1012600080E4D80708F05CC0CE019A9581159F41B3
:1012700008F481CFA5CFC11536E5D30718F5C11500
:1012800045E5D40708F07DC0C11584E5D80708F00E
:1012900073C09C2F969596959E0123703327C11598
:1012A000D34508F45AC0C1E0D0E002C0CC0FDD1F26
:1012B0002A95E2F730E2939FC0011124C82BD92B65
:1012C000DA6859CFC1158AE5D80778F4C11529E540
:1012D000D20708F061C0C11538E5D30708F470CF14
:1012E000DC2FCC27C06FD06A46CFCE019056811537
:1012F000904208F065CF8D2F8F710E94220890E0F8
:10130000982F882788279F719C012C2BE90142C0C8
:10131000C55AD0E0C65EDE4FC881D0E0D0642BCF86
:10132000DF70D06A28CF2C2F26952695237080E277
:10133000289F900111248C2F8370C1E0D0E002C05F
:10134000CC0FDD1F8A95E2F7C22BD32BDD6813CFBC
:10135000DC2FCC27C16FD06A0ECFC1E0D0E002C035
:10136000CC0FDD1F2A95E2F720E2929FC0011124E5
:10137000C82BD92BDC68FFCEDC2FCC27C46FD06AFA
:10138000FACE8C2F0E942208C82FD0E0DC2FCC2769
:10139000CC27DF71D062EFCE8C2F8F700E94220895
:1013A00034E0D695C7953A95E1F7CF709C2FEC01C4
:1013B000D069E1CEC2EED0E0DECEC0EED0E0DBCE32
:1013C000C6EED0E0D8CEC5E3D0E0D5CE80913502D0
:1013D000882331F0109235021092340210923302B9
:1013E0000895CF93C82F8091FC0482FF0CC0809198
:1013F00035028C1741F00E942C06909334028093A2
:101400003302C0933502CF910895809590913005B5
:10141000982390933005089580959091E703982341
:101420009093E70308959091E703892B8093E70356
:101430000895109212021092110210921002089553
:1014400080910A0490910B04892B89F00E942C064C
:101450002091330230913402AC01421B530B81E0E6
:1014600020910A0430910B044217530708F480E0DE
:1014700081700895909111019923D1F09091FB040E
:1014800097FF16C0E82FE695E695E695EE31E0F475
:10149000F0E0EE57FE4F282F277081E090E001C06A
:1014A000880F2A95EAF7809592818923828308958F
:1014B000E4E8F1E09191891303C0DF0111971C92D8
:1014C00091E0EA38F907B1F7089520910F02909161
:1014D000CE01291302C080E0089530E0F90153E005
:1014E000EE0FFF1F5A95E1F7E153FE4F518156135E
:1014F00006C05081581303C05281541304C02F5F9B
:101500003F4F2770E6CF81E0089580910F029091C0
:10151000CE01981301C008958F5F8770FACFA82F6E
:10152000A77023E0969587952A95E1F7FC01EE0FC9
:10153000FF1FE80FF91FE60FF71F50E040E080E0C3
:10154000219130E00A2E02C0369527950A94E2F7E1
:1015500021703327042E01C0220F0A94EAF7822B50
:101560004F5F5F4F4330510559F70895903FC9F0E1
:10157000983080F48930A8F4282F30E06BEA71E0CD
:10158000A901E9E09E9F400D511D1124CA010E944E
:101590008F0A08959C5F923020F468EA71E090E031
:1015A000F6CF80E00895262F277091E001C0990FB3
:1015B0002A95EAF723E0769567952A95E1F7FB01EE
:1015C000EE0FFF1FE60FF71FE40FF51F50E040E09E
:1015D000682F70E08191DF0111979B01042E02C0FA
:1015E000369527950A94E2F721702195282729231B
:1015F00028272C934F5F5F4F4330510559F70895CB
:10160000282F862F903F79F0983070F4293058F4C5
:10161000622F70E029E0929F600D711D11244BEA4A
:1016200051E00E94D30A08959C5F9230E0F7622F48
:1016300070E048EA51E0F5CF92959F70963091F0B6
:1016400058F4925F9F70923058F4803F19F030F454
:10165000883E30F481E008959A5FF4CF843FD1F35F
:1016600080E00895883EB0F3813FD1F7F3CF982F03
:1016700092959F7011F0892F94E0282F269526953A
:1016800011F09E5F822F869509F09F5F892F089544
:101690009C013A9521153F4150F5FC01EE27F17070
:1016A000BC0166277270AC01442754709C0122274C
:1016B000387094FF0EC080E1EF2B09F480E0672BB7
:1016C00009F08062452B09F08064232B89F0806843
:1016D000089581E0EF2B09F480E0672B09F0826028
:1016E000452B09F08460232B19F08860089580E071
:1016F0000895CF93C82F289A5C9A469A0E94370B78
:101700008370823049F0833051F0813011F4289891
:101710005C988C2FCF91089528984698FACF5C98C2
:10172000FCCF8093FD047093FF046093FE048091CE
:101730002E058430F9F48093E9008FEF9091E80052
:10174000815095FD06C095ED9A95F1F70000811145
:10175000F5CF8091E80085FF0DC050E040E063E0E8
:1017600070E08DEF94E00E94B0048091E8008E77E5
:101770008093E8000895BC0184E00E94910B0895D5
:10178000BC0183E00E94910B0895CF93DF93EC019D
:10179000809111018823B1F18091FB0487FF32C051
:1017A00060E284E08093E9008FEF9091E80081503F
:1017B00095FD06C095ED9A95F1F700008111F5CFE2
:1017C0008091E80085FF1BC08091110170E050E01E
:1017D00040E0811104C050E040E068E070E0CE01DC
:1017E0000E94B0048091E8008E778093E80080E248
:1017F000FE01A3E0B5E001900D928A95E1F7DF913B
:10180000CF91089568E081E0CDCF81E08093E00042
:1018100080E28093D8001092C9008FE19EE4019786
:10182000F1F700C0000087E090EBDC018093310508
:1018300090933205A0933305B093340588E19CE082
:101840000FB6F894A895809360000FBE9093600047
:10185000FFCF019708F40895EFE9FFE03197F1F722
:1018600000C00000F6CF0F931F93CF93DF9308E0E3
:1018700014E0C7E8D2E0CE010E94B934F8018193A8
:101880008F012196CB3AF2E0DF07A9F7C1E5D6E058
:10189000FE0185919491009711F0FC0109952C9619
:1018A000F6E0C13EDF07A1F7DF91CF911F910F91C5
:1018B0000895FF920F931F93CF93DF93F42E8430FC
:1018C00070F5623060F528E0829F8001112434E0D9
:1018D000639FB0011124060F171F09591D4F82E0A5
:1018E00090E0442311F090E080E0800F911F0E946F
:1018F000B934C82FD0E0DC2FCC2783E090E0FF2064
:1019000011F081E090E0800F911F0E94B9349E0198
:10191000282BC901CDB7DEB7E5E00C94613490E027
:1019200080E0F8CF0F931F93CF93DF93843030F58F
:10193000683020F5493010F5C42FD0E0CC0FDD1F02
:1019400022E1629FC00DD11D112430E9839FC00D9B
:10195000D11D1124CE0187960E94B934082F10E0C2
:10196000102F0027CE0188960E94B9349801282BA9
:10197000C901DF91CF911F910F91089590E080E010
:10198000F8CF2091E5033091E603232BC9F4703F93
:1019900039F4603FA9F48091E3039091E403089542
:1019A000843070F4783038F4693050F4462F672F63
:1019B0000E94920C08957D3F31F441E0623040F086
:1019C00090E080E008957C3FD9F76230C8F740E0AE
:1019D0000E94590C0895CF92DF92FF920F931F93AC
:1019E000CF93DF936C0100912F0580913602082B75
:1019F000C7E0D0E010E0FC2EC8010C2E02C0959587
:101A000087950A94E2F780FD0CC02197A0F7F12C8E
:101A10008F2DDF91CF911F910F91FF90DF90CF908D
:101A20000895B6018C2F0E94C10C0E946508019791
:101A300061F3EECFCF93DF93EC010E94EB0CBE017C
:101A40000E94C10C0E946508DF91CF910895CF9349
:101A5000DF93EC014B815C81698188810E941707CB
:101A6000811110C08E819F81009739F00E94650816
:101A70000E941C0BDF91CF910895888199810E946B
:101A80001A0DF6CF80E0F6CFA5E0B0E0EAE4FDE085
:101A90000C94473449835A8389819A81662399F04B
:101AA000222389F00E94EB0C182F682F89819A81DC
:101AB0000E94000B69817A81812F0E94C10C2596BA
:101AC000E3E00C9463340E94B60A182FF3CFFC01B4
:101AD000262F86819781009739F440815181628158
:101AE000738184810E94440D089583E290E00E94F6
:101AF000B9348A3C89F484E290E00E94B934863893
:101B000059F485E290E00E94B93491E08B3809F0F5
:101B100090E0892F8170089580E0FCCFCF9384E01E
:101B200090E00E94B934C82F82E290E00E94B9345C
:101B3000982F8C2FCF910895DB01FC0132962591CF
:101B400034914217530758F0FC0134966591749113
:101B5000A901CD010E94993490E080E008958FEFB3
:101B60009FEF08950F931F93CF93DF9308E014E046
:101B7000C7E8D2E0CE010E94B934F80161918F012B
:101B8000681719F0CE010E94C7342196CB3AF2E0D3
:101B9000DF0781F7DF91CF911F910F910895DA014F
:101BA0009C012E5F3F4FF90145915491F901259118
:101BB0003491A217B30758F0FC01349685919491A3
:101BC0000E9499340E94B20D90E080E008958FEF5A
:101BD0009FEF0895CF93DF93CBE9D3E060E0CE0190
:101BE0000E94C7342196C11584E0D807B9F7DF9168
:101BF000CF9108950F931F93CF93DF93142F022F4C
:101C0000843020F5623010F598E0899FE0011124BE
:101C100084E0689FB0011124C60FD71FC959DD4F5A
:101C200082E090E0442311F090E080E0632F8C0F7D
:101C30009D1F0E94C73483E090E0112311F081E0E2
:101C400090E0602F8C0F9D1F0E94C734DF91CF91D1
:101C50001F910F9108951F93CF93DF93122F84301C
:101C6000E0F46830D0F44930C0F4C42FD0E0CC0F99
:101C7000DD1F92E1699FC00DD11D112490E9899F5C
:101C8000C00DD11D1124632FCE0187960E94C73449
:101C9000612FCE0188960E94C734DF91CF911F91AA
:101CA0000895CF93C82F6FEF81116AEC83E290E023
:101CB0000E94C7346FEFC11166E884E290E00E9491
:101CC000C7346FEFC1116BE885E290E00E94C73422
:101CD000CF910895CF93C92F682F84E090E00E94A0
:101CE000C7346C2F82E290E00E94C734CF910895F0
:101CF0009B01883070F49AE0899FB00111246555EA
:101D00007D4F4AE050E0C9010E94A93490E080E094
:101D100008958FEF9FEF0895AAE0B0E0E2E9FEE0BA
:101D20000C9448349C0137552F3F310509F068F475
:101D3000BE016F5F7F4F0E94780E892B31F4898539
:101D40009A852A96E2E00C94643480912004909164
:101D50002104F7CFAAE0B0E0E0EBFEE00C943E34C3
:101D600009E613E087E5C82E83E0D82E9BE4E92E30
:101D700093E0F92E27E0922E36E5A32E33E0B32E22
:101D800088248394D6010D931D936D014AE050E0A1
:101D9000B701CE0101960E94A934F8013896DF01FF
:101DA000892D1D928A95E9F789819A81D80111962A
:101DB0009C938E938F8112968C9312978D8113969C
:101DC0008C931397888514968C9314978985159610
:101DD0008C9315978B819C8117969C938E93169765
:101DE00018961C9218978A8587FF3CC01E961C92F5
:101DF0001E921D9780FF03C0D80118968C9281FF18
:101E000004C0F80190859260908782FF07C0D801D6
:101E100018969C911897946018969C9383FF04C021
:101E2000F80190859860908784FF07C0D8011896C4
:101E30009C911897906118969C9385FF04C0F801B7
:101E4000808580628087015F1F4FFAE0EF0EF11CF2
:101E50008BE9E81683E0F80609F094CF2A96ECE0C7
:101E60000C945A34F801B686A586C4CFAAE0B0E037
:101E7000ECE3FFE00C944234E6E0F3E080E5DF01C0
:101E80001D928A95E9F7E4E9F4E088E3DF011D9209
:101E90008A95E9F786E0C82E83E0D82E7F010BEF04
:101EA00012E0F701D182C0824AE050E0B801CE01D1
:101EB00001960E94A93488E0FE013196D601019076
:101EC0000D928A95E1F789859A85D70113969C939F
:101ED0008E931297BAE0CB0ED11CE7E0EE0EF11C08
:101EE000065F1F4F0B34F3E01F07D9F62A96E8E090
:101EF0000C945E34CF938091E70390913005892B49
:101F00008093820180913502882329F180910A040F
:101F100090910B04892B29F00E94200A81110E94C4
:101F2000E6098091820190913502892B809382018C
:101F300080911101882309F447C08091FB0487FF39
:101F400043C08EE1E4E8F1E090E0815008F03EC04B
:101F500091110E94E609C091E404C095809182012C
:101F6000C8238091E504C82BC093820140E250E071
:101F700063E172E082E891E00E948C34892B11F1D8
:101F800080E2E2E8F1E0A3E1B2E001900D928A95EF
:101F9000E1F7E091F204F091F304309799F0809129
:101FA0001101882349F08091FB0487FF05C0C0938D
:101FB000830186E0809382010280F381E02D82E834
:101FC00091E00995CF91089586E0BCCF219122231D
:101FD00009F4BBCF9F5FB9CFCF93DF93EC01EA85C4
:101FE000FB85309719F06C857D8509958B810E9462
:101FF000050A8C810E940C0A0E947A0F86E0FE017D
:1020000011928A95E9F7DF91CF910895CF93DF93ED
:10201000EC018D8181FD15C082608D83809130053A
:102020009B81892B809330058C810E94130A0E942A
:102030007A0FE885F985309721F06C857D85CE0192
:1020400009951092EF041092EE048D8180FD03C07B
:10205000CE010E94EC0FDF91CF91089580910F0186
:10206000877F80930F0182E00E94050A80910F0113
:1020700084FF06C08F7E80930F0182E00E94130AC6
:1020800080910F0185FF06C08F7D80930F0180E254
:102090000E94130A0E947A0F089590E080E00E9447
:1020A000830690E080E00E946D06109230050E9449
:1020B0007A0F08950E94790B80932F050E944D108E
:1020C000089580912F05982F9670963021F488609E
:1020D0000E945A100895877FFBCF21E030E001C0B5
:1020E000220F8A95EAF7209580912F0582230E947E
:1020F0005A100895909112028095892380931202BC
:10210000282F277091F4282F082E000C330B9217DC
:10211000130659F09091FC0492FF07C085958595B0
:1021200085950E946D100E94190A08959091FC04F3
:1021300092FB222720F9281769F080FB92F99093EF
:10214000FC048091FB049091FC040E946A0E82E0E2
:102150000E947A10089521E030E001C0220F8A9594
:10216000EAF780912F05822B0E945A1008959091D2
:10217000FC0492FF10C098E0899F90011124622B0B
:10218000609312020E94AB100E942C0690931102E1
:102190008093100208950E94AB1008958093360238
:1021A0000E944D1008951092E70380911101E4E818
:1021B000F1E0882361F08091FB0487FF08C08EE185
:1021C000DF011D928A95E9F70E944D10089586E07F
:1021D000F7CFAAE2B0E0EFEEF0E10C94473486E2EC
:1021E00095E02091F100DC012D93CD01B5E08E3218
:1021F0009B07B9F780912705833009F472C0B8F4C2
:10220000813009F449C0823009F4B3C08091E800FC
:1022100083FF96C280912605909127059A3008F099
:102220008FC2E92FF0E0EB5FFA4C0C942B348A302C
:1022300009F48EC08B3009F471C0893039F7809170
:102240002605813219F780912A0590912B05009778
:1022500011F00297D9F68091E800877F8093E8001B
:102260008091E80082FF38C09091F3008091F200E5
:10227000029731F48091F100813011F0863021F421
:102280008091F100809302058091E8008B77809324
:10229000E8000E940205BACF80912605813A09F034
:1022A000B5CF8091E800877F8093E80080912A0570
:1022B00090912B05892B61F460E283E095E070E05A
:1022C0000E94AE058091E8008B778093E8009ECF56
:1022D00060E090E080E0F3CF80912E058111C0CFC7
:1022E00095CF80912605813A09F090CF80912A05FB
:1022F00090912B05892B09F089CF8091E800877F89
:102300008093E8008091E80080FFFCCF809111016C
:102310008093F1008091E8008E77B9CF80912605F7
:10232000813209F073CF80912A0590912B05892B7A
:1023300009F06CCF8091E800877F8093E8000E94CD
:10234000020580912805809311010E94D3105ECF71
:1023500080912605813209F059CF8091E800877F6E
:102360008093E8000E940205809129058093010571
:102370004DCF80912605813A09F048CF8091E80041
:10238000877F8093E8008091E80080FFFCCF8091F8
:102390000105BECF803899F0823809F0D1C1809113
:1023A0002A058F70873008F0CBC18093E9008091B7
:1023B000EB0085FB882780F91092E90006C0809128
:1023C000230590912405911182609091E800977FF8
:1023D0009093E8008093F1001092F1008091E80062
:1023E0008E77AAC1882309F498C1823009F0A8C168
:1023F0008091280581119BC180912A058F702FEF54
:10240000280F263008F09CC18093E9002091EB0052
:1024100020FF8DC1933031F48091EB008062809376
:10242000EB0085C19091EB0090619093EB0021E06F
:1024300030E001C0220F8A95EAF72093EA0010925B
:10244000EA008091EB008860EACF811179C1109198
:1024500028051F778091E3008078812B8093E3002B
:102460008091E800877F8093E8000E9402058091B8
:10247000E80080FFFCCF8091E30080688093E30058
:1024800082E0111183E080932E055AC1805882307A
:1024900008F056C120912805309129052C3DE3E034
:1024A0003E07A1F583E08A838AE289834FB7F894D7
:1024B000DE01139620E03EE051E2E32FF0E050937E
:1024C0005700E49120FF03C0E295EF703F5FEF708B
:1024D0008E2F90E0EA30C0F0C7968D939D932F5FCA
:1024E000243159F74FBF8091E800877F8093E8003F
:1024F0006AE270E0CE0101960E94AE058091E8008C
:102500008B778093E8001CC1C096E7CF80912A05A5
:1025100090912B05432F55274330510509F44AC0AC
:1025200078F54130510509F485C08BE590E0E7ED81
:10253000F6E04230510509F003C12091E800277F01
:102540002093E80020912C0530912D0582179307E8
:1025500008F49C0140E02115310509F070C04111DB
:102560006EC08091E80082FDC9CF80912E0588233E
:1025700029F2853019F28091E80083FFF2CFBECFB7
:102580004132510509F447C04232510509F0D8C023
:102590008330910508F0D4C0FC01EE0FFF1FED5809
:1025A000FE4F0190F081E02D80599E4FDC018C910F
:1025B00090E01DC0332721303105E9F021153105A8
:1025C00079F022303105F9F02330310509F0B8C037
:1025D000E4E4F7E0E4918E2F90E0E4E4F7E007C054
:1025E000E8E9F7E0E4918E2F90E0E8E9F7E0009762
:1025F00009F4A6C0A2CFECE7F7E0E4918E2F90E0BB
:10260000ECE7F7E0F4CFE2E6F7E0E4918E2F90E01C
:10261000E2E6F7E0ECCF8330910508F091C0880F37
:10262000991FFC01E758FE4F0190F081E02D89E0F1
:1026300090E083CF82E190E0E2E3F7E07ECF80910B
:102640002E05882309F45ACF853009F457CF80919D
:10265000E80083FD53CF8091E80082FD82CF809116
:10266000E80080FF78CF9091F3008091F20021156F
:10267000310519F08830910550F041E0089709F0D4
:1026800040E08091E8008E778093E80064CF449129
:102690004093F1003196215031090196E8CF8038FE
:1026A00009F04EC08091E800877F8093E800809118
:1026B00025058093F10092CE811142C0109128052A
:1026C0001230F0F58091E800877F8093E800109346
:1026D00025050E940205112311F084E005C08091B8
:1026E000E30087FDFACF81E080932E0542E061ECA4
:1026F00081E00E94210542E261EC84E00E94210514
:1027000042E261EC82E00E94210542E260EC83E05B
:102710000E94210580912E0513C0809128058130EB
:1027200079F481E0933009F080E0809324051092E1
:10273000E9008091E800877F8093E8000E9402050D
:102740008091E80083FF0AC08091E800877F809332
:10275000E8008091EB0080628093EB00AA96E3E0B2
:102760000C946334E8E0F4E0128E138E8FEA90E06C
:102770009183808385E0848F28E833E1338322834B
:1027800022E330E0378B268B28EC30E0318F208F2E
:10279000158E178E168E20E530E031A320A382A37C
:1027A0000E94B20D0E94D3101092FC041092FB0400
:1027B000ECEFF4E08081846080838091FB04909151
:1027C000FC040E946A0E0E94330C0895AEE1B0E052
:1027D000ECEEF3E10C943B34A090E103B090E20303
:1027E00081E090E09093E2038093E10387EE882EEE
:1027F00083E0982E97E0C92E94E0D92E10E0760160
:1028000000E015C0F30125913491452D602F812FF3
:102810000E942B0E82E0680E711C5394E9E05E1258
:10282000F1CFF2E1EF0EF11C0F5F083019F0370124
:10283000512CE8CF740100E0F7012591349141E07B
:10284000602F812F0E94FA0DF70132962591349165
:1028500040E0602F812F0E94FA0D84E0E80EF11C09
:10286000013009F05FC0E8E08E0E911C1F5FF0E9B7
:10287000CF0ED11C143009F0C2CF0E94B2131A82BD
:1028800019821C821B821E821D8218861F8288EC80
:1028900090E09A8789870BEA12E04AE050E0B8019D
:1028A000CE0101960E94EB34065F1F4F0B3F82E082
:1028B000180799F77E01EBE0EE0EF11C8AE0F701B4
:1028C00011928A95E9F74AE050E0B801C7010E94E9
:1028D000EB34065F1F4F0B34F3E01F07A1F77E01B7
:1028E00085E1E80EF11C8AE0F70111928A95E9F77B
:1028F0008FEF9FEF9A8F898F87E08E8F4AE050E0AD
:10290000B801C7010E94EB34065F1F4F0B39F3E09B
:102910001F07A1F7B092E203A092E1036E96EFE0E9
:102920000C94573401E088CF80E00E94510E60E0A3
:1029300086E290E00E94C7340E94E6130E94EA0DEE
:1029400081E00E94510E0895CF92DF92EF92FF92A4
:102950008FEF9FEF4430510508F46AC0FB01C0803F
:10296000D180E280F3800E94D3108091FB04C0FAF2
:1029700080F9B701A601769567955795479540FB75
:1029800081F9B701A60122E076956795579547959D
:102990002A95D1F740FB82F9B701A60133E076957D
:1029A0006795579547953A95D1F740FB83F9B7015D
:1029B000A601E4E07695679557954795EA95D1F796
:1029C00040FB84F9B701A601F5E076956795579528
:1029D0004795FA95D1F740FB85F9B701A601A6E026
:1029E0007695679557954795AA95D1F740FB86F957
:1029F000B701A601B7E07695679557954795BA95C3
:102A0000D1F740FB87F98093FB048091FC04D0FA56
:102A100080F9D1FACC24C0F8C0FA81F98093FC0483
:102A20008091FB049091FC040E946A0E90E080E08B
:102A3000FF90EF90DF90CF9008950E94D3102FEF7A
:102A400084E39CE0215080409040E1F700C000000A
:102A500088E19CE00FB6F894A895809360000FBEC3
:102A600090936000FFCF882321F00E94050A0E9406
:102A70007A0F0895882339F090913005982B909320
:102A800030050E947A0F0895882321F00E940C0AD5
:102A90000E947A0F0895882321F00E94130A0E9451
:102AA0007A0F0895882339F19CEF980F913A28F412
:102AB0000E943A0A0E947A0F089590E2980F983087
:102AC00050F4877091E001C0990F8A95EAF7892F39
:102AD0000E940C0AEFCF9BE5980F933028F490E00A
:102AE00080E00E9483060895885A873120F490E0A0
:102AF00080E00E946D060895FF920F931F93CF937D
:102B0000DF93F82E0091E9041091EA0401151105F4
:102B100009F449C01092E8041092E7041092E4040A
:102B20001092E504D8011696CD91DC919E013A955C
:102B300021153F4108F4D07ED1E0C11101C0D0E0A1
:102B4000D8011996ED91FC911A97309731F01B96A8
:102B50006D917C9180E00995D823DD2339F08CEFCD
:102B60008C0F813A30F58C2F0E943A0AFF2099F0A1
:102B7000E091E904F091EA04808584FD0CC0809125
:102B8000E604882341F0808191819C012150310924
:102B9000203B3D45A0F00E947A0F1092EA0410926B
:102BA000E9041092E604C801CDB7DEB7E5E00C9465
:102BB00061340E947A0F8C2F0E945215D7CF0E9449
:102BC000A606E9CFA0E1B0E0E8EEF5E10C943C34D4
:102BD0008E010F5F1F4F80E1F80111928A95E9F78E
:102BE0009BE4E92E91E0F92E680123E5622E21E0B5
:102BF000722E88248394912CF70181917F018F3F5D
:102C000009F446C0F894E82FE295EF70F0E021A1B6
:102C10008F70A40102C0440F551F8A95E2F7CA01C4
:102C2000922F982B91A392A18095892382A37894C7
:102C300000C0E3E5F1E021E030E0B12CA12C4191AE
:102C40004F3F09F466C0A42FA295AF70B0E09096F4
:102C50008C9190E04F7002C0959587954A95E2F768
:102C600080FD57C0C901A82AB92A220F331F51E09D
:102C7000EC35F50721F7F701319780818F3F11F08F
:102C80000E940B0880EA8A95F1F7F601B182A082D2
:102C9000F2E0CF0ED11C6E147F0409F0ADCF40E1FD
:102CA00050E0B8018BE392E00E948C34892BA1F1B3
:102CB00080E1F801ABE3B2E001900D928A95E1F773
:102CC00081E0809339020E942C0690933802809311
:102CD000370280913702909138020E9411060597C1
:102CE000F8F040E150E06BE372E084E792E00E948C
:102CF0008C3410E0892B51F080E1EBE3F2E0A4E7A3
:102D0000B2E001900D928A95E1F711E0109239023C
:102D100008C090E080E0A7CF809139028111D9CF1F
:102D200010E080913A02882361F090E080E00E94F8
:102D30001106833E944028F082EE0E9452151092B4
:102D40003A02812F6096EEE00C945834CF93DF93D3
:102D5000EC010E945215CE010E94480B9E01205E9C
:102D600031092830310510F0CD2B29F40E9444158B
:102D7000DF91CF9108950E943315FACFCF93C82FDA
:102D80008823C9F18CEF8C0F813AB8F5809111013D
:102D9000882301F18091FB0487FF1CC0EC2FE6958E
:102DA000E695E695F0E0EE57FE4F828190E04C2FDD
:102DB000477021E030E002C0220F331F4A95E2F74E
:102DC00082239323892B81F08C2F0E943A0A0E9440
:102DD0007A0F0AC0E4E8F1E08AE891E02191C21795
:102DE00099F38E179F07D1F76C2F82E891E00E942C
:102DF00038060E947A0FCF91089580E28C0F8830B8
:102E000048F4C77081E001C0880FCA95EAF70E94B4
:102E1000130AEFCFEBE5EC0FE33040F4F0E0E65EB1
:102E2000FE4F808190E00E948306E5CFC85AC731EB
:102E300010F7EC2FF0E0EE0FFF1FE35EFE4F8081F6
:102E400091810E946D06D7CF1F93CF93DF93182FE8
:102E5000C0912804D0912904893321F0C09126041F
:102E6000D0912704812F0E94BE16209739F4812F1C
:102E70000E945215DF91CF911F9108958FE99FE035
:102E80000197F1F700C000002197EFCFB0E0A0E07C
:102E9000ECE4F7E10C944034EC018AE0A82E2881A0
:102EA000222309F48FC02130C9F599818A8191309C
:102EB00021F422960E94241705C0923029F422960C
:102EC0000E94BE162196EBCF933021F422960E94E9
:102ED0005215F8CF943011F02196F4CF229630E0BD
:102EE00020E0AE014F5F5F4F8053990B8A30910510
:102EF00050F02150310930F38FE99FE00197F1F74D
:102F000000C00000F6CFA29EB001A39E700D112458
:102F10009C01260F371F8981EA01E3CFE22FF0E001
:102F2000E453F84FB490822F86958695869590E06D
:102F3000FC01E454F84FE4902770F12C022E02C0FB
:102F4000F594E7940A94E2F731E0E322FF24FC01D0
:102F5000E455F84FC490D12C022E02C0D594C794EA
:102F60000A94E2F731E0C322DD24FC01E456F84F75
:102F7000049110E002C0159507952A95E2F70170BB
:102F80001127E114F10419F081EE0E94BE16C1145C
:102F9000D10419F086EE0E94BE168B2D0E942417D4
:102FA000C114D10419F086EE0E945215E114F10407
:102FB00019F081EE0E9452150115110509F482CF16
:102FC0008CE278CFCDB7DEB7EAE00C945C34B0E0A9
:102FD000A0E0EDEEF7E10C9440347C015B01C42FDE
:102FE000D22FFC0182818823A9F04093ED040E9436
:102FF0002C069093EC048093EB04C77081E001C031
:10300000880FCA95EAF70E944B15CDB7DEB7EAE004
:103010000C945C341091ED04141338C08091EB04CF
:103020009091EC040E9411066C01B701C5010E9449
:103030008C0EC816D90650F5C0E2CD0F1D17C1F091
:1030400080E2810F883048F4177081E0012E01C0C2
:10305000880F0A94EAF70E944415C83048F481E0CA
:103060009D2F977001C0880F9A95EAF70E944B1523
:10307000802F0E942417C83040F6D77081E001C02D
:10308000880FDA95EAF70E944415BFCFC77081E038
:1030900001C0880FCA95EAF7F6CFCF93DF93EC0112
:1030A0000E94480B9E01205E31092830310510F046
:1030B000209741F40E944B158C2F0E94BE16DF9181
:1030C000CF9108950E943A15F7CF662329F02091F9
:1030D00030052260209330059C013056211540E2D6
:1030E000340720F0305E2115304108F499270E9402
:1030F0004D180895B0E0A0E0E0E8F8E10C94433406
:103100007C018B01D42E80910F0182FF8CC0C09175
:103110002E04D0912F04CE15DF0521F0E114F10427
:1031200009F081C080910F018B7F80930F0181FD99
:1031300073C080912C0490912D04A801481B590B59
:1031400081E020910D0130910E014217530708F4E0
:1031500080E08170F82E80910F01F0FA81F9809360
:103160000F01FE0183E0F695E7958A95E1F7EE7190
:10317000FF27E851FC4F20813181AE014F70552768
:1031800081E090E002C0880F991F4A95E2F7FF2086
:1031900009F444C0822B932B918380838091E703B1
:1031A00081FF08C080910F01806180930F0182E050
:1031B0000E940C0A8091E70385FF08C080910F01EF
:1031C000806280930F0180E20E940C0A6F2DCE0175
:1031D0000E946518DD2031F08091230485FF02C034
:1031E00086FF3BC080912604909127040E94290C01
:1031F00080912E0490912F049C013056211540E2BD
:10320000340720F0305E2115304108F499270E94E0
:10321000A6160E942E101DC081E09BCF8095909530
:1032200082239323B9CFC7019927970130562115DF
:1032300040E2340728F0305E2115304108F0C70124
:103240000E94A61680912E0490912F048E159F0542
:1032500001F310932D0400932C04CDB7DEB7E7E003
:103260000C945F3468EE7EEF90E080E00E94E534DD
:1032700060E082E090E00E94C73460E083E090E08C
:103280000E94C7341092360260E084E090E00E9411
:10329000C73464E082E290E00E94C73460E085E0D9
:1032A00090E00E94C73460E086E090E00E94C7345E
:1032B0006FEF87E090E00E94C73440E050E0BA0131
:1032C00088E090E00E94D93460E08DE090E00E94B8
:1032D000C73440E050E0BA0188E190E00E94D93460
:1032E00060E087E190E00E94C73440E050E0BA011E
:1032F0008CE190E00E94D93470E060E080E290E0E0
:103300000E94E53440E050E0BA0188E190E00E947C
:10331000D93480E00E94510E0E94941440E050E0A5
:10332000BA018FE090E00E94D93440E050E0BA0149
:1033300083E190E00E94D9340895A7E0B0E0E3EA89
:10334000F9E10C9438347C01DC0113964D915C91C9
:10335000149711966C9111978C910E941707811107
:10336000EEC061E0C7010E94670D8C01F701828108
:103370008823E1F08091EE049091EF040097B1F082
:103380000817190799F0FEE08F9FC0011124FC0176
:10339000E556FD4F2081246020838A569D4FDC0135
:1033A0000D931C930E94061010923005F701828144
:1033B000882311F40C945122C80182519F454097F3
:1033C00010F00C9445228FEF93E00E94B9348111E4
:1033D000A6C07EEED72ED00E0BE913E0D11036C07A
:1033E00019821A821B821C8299249A9468012FEFF9
:1033F000C21AD20AC8010E94B93489831A8288236A
:1034000009F48DC0813009F07FC0580132E0A30E6D
:10341000B11CC6010E94B934C82E8A83882309F4DE
:103420007EC0C5010E94B934D82E8FEF8C0D833039
:10343000D8F4580143E0A40EB11CDB82DD2021F05A
:10344000CE0101960E9446178501D0CF0115F4E008
:103450001F0709F464C0C8010E94B934811101C07A
:10346000DA940F5F1F4FBACF8BEF8C0D833030F59E
:10347000C8010396DB825C01DD2031F3580154E082
:10348000A50EB11C0E94B9348C838823E9F28B818C
:103490009C818130AFEF9A0710F0982F8827B6E013
:1034A000CB1631F0E7E0CE1631F00E94BF29CCCF29
:1034B0000E949929C9CF0E942029C6CFF4E0CF12DB
:1034C000C3CF580124E0A20EB11CC80103960E948C
:1034D000B934DD2021F1882311F18150990B989E98
:1034E0009001999E300D11244D2D4150550BCA016C
:1034F000820F931F019708F4A7CFAFE9BFE01197A0
:10350000F1F700C00000F6CFCE0101960E944617E9
:1035100056019ACF81E00E94AB100E946110809109
:103520001202877061F0D70112968C91882339F0CE
:103530008091FC0482FF03C082E00E947A102796EB
:10354000E2E10C94543481E00E946D10E6CF82E0F9
:10355000FBCF823009F0E3C78091900290919102F5
:10356000892B09F4DCC72EE02C9DC0012D9D900D08
:103570001124FC01E556FD4F20812E7F20838A56C1
:103580009D4F0E940610CBC781E080930001C7CFFA
:1035900080910001882309F4A4C6480120EE821A14
:1035A0009108409035028091A501482A8091E70357
:1035B000482A38E08316910408F086C098012770E5
:1035C000332781E090E001C0880F2A95EAF7552063
:1035D00009F477C0482AD7018D919C910E94B60AC0
:1035E00021E030E0F90102C0EE0FFF1F8A95E2F7FB
:1035F000FF83EE832090E9043090EA046090A201FA
:103600007090A3011D822D81E22FF0E0EE0FFF1FCD
:10361000E95AFC4FC080D180C114D10409F4C5C659
:10362000411005C0D60112968C91811189C0F60116
:10363000838190E02E813F8182239323892B09F49B
:103640007FC08085982F977009F487E038E0831653
:10365000910408F053C0552009F44CC08695817040
:10366000882309F46DC0D601AD90BC900A151B05E6
:1036700019F4552009F464C0C214D30409F460C0DD
:10368000D6011D96ED91FC91309721F08081882321
:1036900009F456C0642DC6010E94F706882309F478
:1036A0004FC00A151B0509F08DC70115110509F456
:1036B0008EC751108EC7A614B70409F041C0512C13
:1036C00088C78095482287CF552009F457C61093A4
:1036D000A3010093A2010E9420066093E00470936E
:1036E000E1048093E2049093E3041092E8041092C2
:1036F000E70471CF82FB882780F9B2CF552001F112
:103700008170AECF0E94521582C70497813A91050D
:1037100058F46A2D82E891E00E943806552009F499
:10372000E0C50E947A0FFBCE0E947A0F8FE39CE9DE
:103730000197F1F700C000008A2D0E94BE16EECF5F
:103740009D819F5F9D835FCFFC01208131810217A6
:10375000130709F0BFC55110BFC51092E60480E001
:103760000E947C15BEC5902F812F03C6F90185816B
:1037700081FF2FC6C9010E94EC0F2BC680910F015B
:10378000816080930F0153C680910F018E7F8093DB
:103790000F010E942E104BC680910F018F7E013EBB
:1037A000110531F0053E1105C9F480910F018F7D9F
:1037B00080930F0180910F0180FF48C6D7011296B8
:1037C0008C910832110528F50E31110508F072C0F0
:1037D0000430110580F5811135C638C6C8019056F0
:1037E000811540E2940720F0905E8115904110F71A
:1037F00080910F0182FF2AC68091250481FD26C693
:1038000020E632E040E0B60190E080E00E947A18C5
:103810001DC60933110558F40D32110518F40B3289
:103820001105C9F69091230492FDD5CF08C0043646
:103830001105C1F3D0CF9091230494FDCCCF882300
:1038400009F4A8C0809135029091E703892B8D7F00
:10385000B1F110922F0410922E048091230481FD67
:103860002EC0F80143E0F695E7954A95E1F7EE7131
:10387000FF27E851FC4F98012F70332781E090E03B
:1038800002C0880F991F2A95E2F7809590952081B4
:103890003181822393239183808360E0C8010E9459
:1038A0006518809135028D7F0E94F10982E00E94A7
:1038B0007A1035CE9091230493FD8DCFC0CF88E050
:1038C000F701A0E6B2E001900D928A95E1F710921F
:1038D0006202109264021092630280912E04909111
:1038E0002F0408171907D1F52091230425FF36C0AE
:1038F00030910F0131FF02C026FF30C020912C040F
:1039000030912D045601A21AB30AB7010E948C0E01
:10391000A816B90618F58091E70381FF08C08091C9
:103920000F01806180930F0182E00E940C0A809158
:10393000E70385FF08C080910F01806280930F012B
:1039400080E20E940C0A60910F016695617080917F
:103950002E0490912F040E946518E1CD80913502CC
:103960009091E703982B20910F0191FB21F920936F
:103970000F018D7F0E94F10910932F0400932E04F4
:10398000D0922D04C0922C0480910F01846080930A
:103990000F018CCF970140E0B601C8010E947A1850
:1039A000BECD053F4CE5140709F463C008F45BC0C5
:1039B000063F8CE5180709F462C0D70112963C91C6
:1039C000332309F4CCC51092ED040330BDE51B0789
:1039D00008F061C00A3FECE51E0730F4C8018250D0
:1039E0009C45449708F063C00E948E0D9093FC04A0
:1039F0008093FB0402315CE5150709F49EC108F0D1
:103A0000EEC009309CE5190709F475C108F0B8C08B
:103A10000530BCE51B0709F462C108F09FC0033004
:103A2000FCE51F0709F453C108F055C18091FB0460
:103A3000816002303CE5130709F4CEC08091FB049D
:103A40009091FC040E946A0E0E94D31068CD07E298
:103A500025EE45EE68ED7CE514C506E221EE40EE6C
:103A600063EF7CE50EC507E225EE44EE64EF7CE5EE
:103A700008C506E221EE42EE65EF7CE502C507E2ED
:103A800025EE46EE66EF7CE5FCC408E221E045EE5B
:103A900069ED7CE5F6C4053AFDE51F0709F4A4CFFE
:103AA00008F055C001364DE5140709F49DCF0631E5
:103AB0008CE5180709F458C50A355DE5150709F4C2
:103AC00095C108F06EC101159CE5190709F474C190
:103AD0000E3D1C4509F47DC1F70186819781009751
:103AE00009F488C10E946508182F092FF701C280C8
:103AF000D580D2943FE0D322809112028770C1F02A
:103B0000AC2CCC20B1F0892F807F803421F080E272
:103B1000810F883068F08091FC0482FF09C082E048
:103B20000E947A10809112028770AA24A3948111B6
:103B3000A12C902E92942FE09222FBE0F91508F42C
:103B4000E6C1E92DF0E0E15FFA4C0C942B34C8019A
:103B50008D5A9D45039708F0AACF46CF8091FB046C
:103B6000806207304CE51407B9F18091FB04806155
:103B700008305CE5150780F18091FB0480642CC05F
:103B80000D308CE5180709F4C0C090F48091FB0457
:103B90008E7F0B30ACE51A07F9F08091FB048C6046
:103BA0000C30BCE51B07C0F08091FB048D7F14C076
:103BB0000F30ECE51E0709F4B8C008F4AAC00031C4
:103BC0002CE5120709F4B5C08091FB048F7B01310D
:103BD0003CE5130709F032CF8093FB042FCF0F3F52
:103BE0004CE5140709F4B3C0A8F50A3F8CE51807A3
:103BF00009F479C0C0F40431ACE51A0709F4B5C082
:103C000008F4A1C00531ECE51E0709F017CF80913B
:103C1000FB0482FB992790F921E0922790FB82F91F
:103C200090FB83F9D9CF0C3FFCE51F0709F475C061
:103C300008F45DC00D3F3CE5130709F472C08091A4
:103C4000FC0483600E3F4CE5140709F0F7CE809327
:103C5000FC04F4CE01365DE5150709F491C090F43B
:103C600001309DE5190709F489C008F474C060E0CB
:103C70000230BDE51B0709F0E1CE8EE090E00E9426
:103C8000C734DCCE0D3AEDE51E07E9F060F4909103
:103C9000FB04892F8E7F90FF8160053A2DE5120786
:103CA00009F49ACFCBCE0E3A3DE5130751F10F3A06
:103CB0004DE5140709F0C2CE9091FC04892F877F4F
:103CC00093FF8860C4CF8091FC048860C0CF80914E
:103CD000FB04826081CF8091FB0484607DCF809162
:103CE000FB04886079CF8091FC048160B0CF809123
:103CF000FC048260ACCF0E94D3108091FB048068EA
:103D00006BCF8091FC04877FA2CF8091FB048B7FD7
:103D100063CF8091FB04877F5FCF8091FC048E7F0F
:103D200096CF8091FC048D7F92CF8091FB048F7E93
:103D300053CF8091FB048F7D4FCF0E94D310809191
:103D4000FB048F7749CF8091FB04837F45CF80911F
:103D5000FC048C7F7CCF8091FC04982F909591700F
:103D60008E7F892B90FB81F972CF0E94D3109091A6
:103D7000FB04892F97FB87F980582ECF61E07DCF18
:103D80009091FB04892F8F7E94FF806125CF8091D5
:103D9000A401811104C089E20E943A0AC2CC85E3E1
:103DA000FBCF0C35BDE51B07B9F010F1073A1D45F7
:103DB00009F092CE0E941D150E94D3102FEF34E31C
:103DC0004CE0215030404040E1F700C000000E942C
:103DD000050C0E943219EECF8091FC0482FB8827EB
:103DE00080F991E089270E94961076CE81E0FBCF82
:103DF00080E0F9CF828100811181882369F0C801B8
:103E00000E94EB0CD82E682FC8010E94000BB8014D
:103E10008D2D0E94C10C66CEC8010E94B60AD82E14
:103E2000F6CF202F2F70B22E802F807F19F0B29402
:103E300090EFB922CC20A9F0BB2059F080E2810F8D
:103E4000883010F0111107C08B2D0E94130A0E94B8
:103E50007A0F812F5AC080913005B82AB092300570
:103E6000F6CF812F0E945215BB2009F450C080E28A
:103E7000810F883010F0111104C08B2D0E940C0AA4
:103E800003C08B2D0E94050A0E947A0F40C0302F7C
:103E90003F70B32E802F807F803219F0B29480EF74
:103EA000B822112321F1113009F4AEC0CC2009F45D
:103EB000B7C0DD2009F47FC020E0D7014C911196F6
:103EC0005C91119712966C91129713967C911397AF
:103ED00014968C910E94440D8091250481FDB9CFE8
:103EE000F701858180FFB5CF8F70858364C0809195
:103EF000FC0482FD40C0CC20C1F1BB2029F08B2DF9
:103F00000E94130A0E947A0F80E00E94BE16A92D1B
:103F1000A850BB0B149710F40E949906812F902F84
:103F20000E941C0B8111B7C11092A7011092A6012B
:103F3000AA20B1F08091120280FD12C0D701129622
:103F40001C928595859585950E94AB10C7010E94AE
:103F50009D19809112028595859585950E946D1019
:103F600060E0C7010E94670DEACA80E00E94521516
:103F7000BB2069F282CFCC2011F1D11004C0809116
:103F800035028B2919C041E0D41206C08091350258
:103F90008B290E94F109BBCF80912404823078F3F1
:103FA000D812EDCF0E94E6099091A5018B2D892BA7
:103FB00089138093A5018B2D0E944B15A8CFD1109A
:103FC00003C00E94E60917C08091240451E0D51275
:103FD00016C0823008F49BCF8091E7038B2109F44F
:103FE00096CF0E94E6099091A5018B2D809589239B
:103FF00089138093A5018B2D0E94441588CF8230B0
:1040000000F3D812DECF83CF80912A04CC2021F098
:104010008D1508F47CCFCFCFD81608F078CFEBCF32
:10402000DD2049F38091280490912904193321F06F
:1040300080912604909127040E94290C812F0E94D0
:10404000521565CF802F86958695837069F08130F3
:1040500009F05DCF812F902F9370C11002C090E0C6
:1040600080E00E946D0653CF812F902F9370C11076
:1040700002C090E080E00E94830649CF802F8370C9
:1040800091F5C11044CF412F429546954770440F9A
:10409000440F812F8F70042E01C0880F0A94EAF715
:1040A000212F207114FF07C02FE030E001C0220F44
:1040B0004A95EAF72095302F369536953370323091
:1040C00069F050F440913602313029F0822B84237C
:1040D0000E94CE101CCF842B822BFACF282B8091EC
:1040E00036028227F5CF8695CC2011F0802F817083
:1040F000882309F40CCF412F429546954770440F11
:10410000440F812F8F70042E01C0880F0A94EAF7A4
:10411000212F207114FF07C02FE030E001C0220FD3
:104120004A95EAF72095302F369536953370323020
:1041300069F050F440912F05313029F0822B84230F
:104140000E945A10E4CE842B822BFACF282B809128
:104150002F058227F5CFF02FFF70BF2ECC2029F03E
:104160008F2F0E94AB10812F27CF812F0E944415E3
:104170008B2D0E946D10CBCE123F89F160F4103F61
:10418000B9F0113F81F0CC2009F480C0D11061CE8C
:10419000802F8F7128C0133F49F1143FA1F7809100
:1041A000FC0482FD2FC0802F8F71CC2011F31BC027
:1041B00080912A04CC2079F0D81608F0A8CE202FC0
:1041C0002F7181E090E001C0880F2A95EAF7909165
:1041D0002F058927B5CF8D1508F499CEF0CF802F04
:1041E0008F71C110C6CF0E94AB1091CE80E0CC2061
:1041F00009F4A6CF81E0902F9F7101C0880F9A9596
:10420000EAF79ECF80912404823040F1CC20D1F097
:10421000909112029770943041F40E94190A802FF5
:104220008F710E946D10A12C72CED816E0F7202F4E
:104230002F71B22E822F0E94AB1063E08B2D0E9453
:10424000B710F1CFD81630F00E94190A64E0802F21
:104250008F71F5CF81E00E947A10E5CFCC2059F024
:10426000302F3F71B32E832F0E94AB1063E08B2D54
:104270000E94B7104CCE81E00E947A1041E04D15AB
:1042800008F045CE82E00E947A1041CED110CACE0D
:10429000802F8F716ECFCC2019F0D11045CE48CE33
:1042A000D11042CE20E0F7014081518162817381BB
:1042B00084810E94440D8091250483FF35CE809136
:1042C000A6019091A701029709F02ECE812F0E949E
:1042D00024172ACE552029F0DC0118968C9185FFF1
:1042E0003ECAC80197558F3F910511F008F071C083
:1042F0005801BB24BEE00B9FF00111249F012A56F8
:104300003D4F6901D70112968C91E556FD4F908182
:1043100080FB90F99083882309F428CA0E942C0618
:1043200090935F0280935E02F60182818F5F8283A9
:10433000809130059091E703892B8383809135022A
:1043400084830680F781E02D309731F0D6011C96EA
:104350006D917C91C60109958EE08A9DF0018B9D3F
:10436000F00D1124EA56FD4F858181FFFCC990E0D4
:1043700080E09093EE048093EF042BC08091A20123
:104380009091A3010817190781F41092A3011092CC
:10439000A2011092E0041092E1041092E204109243
:1043A000E3041092E8041092E7048091E9049091EC
:1043B000EA04009709F495CFA8E08A16910408F062
:1043C000C3C9642D0E94F706811103C081E00E94D9
:1043D0007C158091230480FF39C00E942C066C015B
:1043E000D70112968C91882309F4D6C980910F01C8
:1043F00082FF08C020E632E040E0B60190E080E0B5
:104400000E947A180B31BCE51B0709F4B7C90C31BF
:10441000ECE51E0709F4B8C990910F01892F8E7F32
:1044200090FF81600A31FCE51F0709F4B0C9C8019B
:104430009056811520E2920728F0905E81159041F8
:1044400008F0B8C910922F0410922E04033FBCE567
:104450001B0709F402CB08F0A4CA083DFCE51F07BE
:1044600009F4F5CA093D2CE5120709F40ECB073D06
:104470003CE5130709F0A1CA06E221EE41EE67ED23
:104480007CE5C7010E94E7174AC80031FFE51F0716
:1044900009F440C801312FE5120709F040C082E05D
:1044A0003AC800313FE5130709F44DC801314FE523
:1044B000140709F44CC86801E7E5DE1AFFEFCF16D0
:1044C000D10409F060F56CE872E08C2D0E94780E42
:1044D000892B29F58EE08C9DF0018D9DF00D112426
:1044E000EA56FD4F8281813009F033C880918C02F9
:1044F00090918D02892B99F080918E0290918F027C
:10450000892B69F080919002909191022091920202
:1045100030919302822B932B892B09F424C8D70165
:1045200012965C90552009F433C80F35BDE51B0782
:1045300009F42AC80036EDE51E0751F00E35FDE5F9
:104540001F0709F025C880910001882309F41CC8C1
:104550001092000180E00E947C150C948F1A0631A5
:104560005CE5150709F0B8CA8091E703982F9A7A9D
:104570002091220420FF04C0482F447409F090E0E9
:1045800021FF04C0482F417109F090E022FF04C0D0
:10459000482F487809F090E023FF03C0827209F0A9
:1045A00090E0332309F4F3CB81E0911101C080E066
:1045B0008093A40169E2911165E382E891E00E9491
:1045C0003806AFC8A114B10409F075C8512CB12C3C
:1045D000A12C80E00E947C15D092EA04C092E904EC
:1045E00081E08093E604F60185818093E404511014
:1045F0000EC0AB2861F0F601808191819C012450AE
:104600003109213A310508F07DC80E943A0AD601E5
:104610001696AD90BC90C5019A9581159F4110F4F6
:10462000E0EEBE2277247394C5010197803B9D453F
:1046300008F0712CD6011996ED91FC911A973097DC
:1046400031F01B966D917C9181E00995782277205D
:1046500079F0F601868197810E94480B8093E504EA
:10466000C501F8E08F16910408F04FC80E94A60615
:104670000E947A0F53C8B0E0A0E0E1E4F3E20C94AA
:1046800042348091CB01807F31F48091C801C09188
:104690000F02811107C0CDB7DEB7E8E00C945E349D
:1046A0002196C7708091CE018C17A9F3F090C601B6
:1046B000E090C701C090C901D090CA01A6016E2D3B
:1046C0008F2D0E941707D0E08111EACF8E0183E081
:1046D000000F111F8A95E1F7F801E153FE4F818128
:1046E0008E11DECF80818F11DBCF82818111D8CFF7
:1046F000E380F480EC18FD0860E086EC91E00E9415
:10470000670D66EC71E00E948C0EE816F90640F623
:104710008091CB018F7080618093CB01F801EC52C6
:10472000FE4F80818F708061808386EC91E00E94D3
:104730009D190E94850AAFCFA5E1B0E0E2EAF3E25D
:104740000C943B348C0185E0F801DE015196019018
:104750000D928A95E1F7D8015C9011966C901197B3
:104760001296EC9012971396CD90DC9060E086EC58
:1047700091E00E94670D86ECA82E81E0B82E809013
:10478000C9019090CA01A4016091C7018091C6013E
:104790000E9417078111A8C1F090C801F601E8191D
:1047A000F9094F0160E0FF2009F44BC1C5010E94E7
:1047B000670DB5010E948C0E7090CB01881699068A
:1047C00008F0F2C04091C9015091CA01B090C601F1
:1047D000A090C701872D807F6A2D09F08CC08B2D9A
:1047E0000E941707FE2C811127C0D80111968C91C9
:1047F00011978A1121C08C918B111EC02091CC0180
:104800003091CD0116968D919C9128173907A1F40E
:10481000E11012C0872D8F7080618093CB0186ECF0
:1048200091E00E949D198091CB01F80185838F2D25
:104830006596EFE00C945734A601662D852D0E94F5
:104840001707D82E81E08E25D11080E080FF18C098
:104850004E2D662D852D0E94650A882389F0809152
:10486000250480FF0DC086EC91E00E949D1988E030
:10487000E6ECF1E0DF011D928A95E9F7F12CD7CF44
:1048800081E08E25D11080E0B82FB170CB2E80FF53
:1048900029C04E2D662D852D0E94650AD82E8111C6
:1048A00021C0598A6A8A89899A890E941A0D292FFA
:1048B00022952F70223050F0243078F49F7051F000
:1048C000F8019581907F31F4FD2CB1CF9F7011F0EC
:1048D0008823D1F3805E8830B8F3C8010E949D1907
:1048E000DC2CF2CFEE2009F4A2CF8091CB018160C5
:1048F0008093CB01C3CF8B2D0E941707811124C059
:10490000D80111968C9111978A111EC08C918B1130
:104910001BC02091CC013091CD0116968D919C91B8
:1049200017972817390781F4E1100EC015967C926D
:10493000C8010E949D1988E0F801A6ECB1E0019041
:104940000D928A95E1F773CFC8010E94270D882345
:1049500039F1EE2029F18091CB018032A0F0209135
:10496000C6013091C7013A8729871B86DD86CC8630
:104970008E878091CC019091CD01988B8F87CE014D
:1049800009960E949D1988E0F801A6ECB1E001901B
:104990000D928A95E1F70E943B23FF24F39447CFC1
:1049A000C8010E949D19F9CF872D807F09F45BCF44
:1049B0009090C6018090C7014091C9015091CA01F1
:1049C000682D892D0E94170781111CC0F801818173
:1049D000881118C08081891115C02091CC013091B7
:1049E000CD01868197812817390761F4E1100AC04B
:1049F0007582C8010E949D1988E0D5011D928A9593
:104A0000E9F715CFC8010E94270D882349F2EE204F
:104A100039F28091CB01803208F4B5CF2091C601E4
:104A20003091C7013A8329831B82DD82CC828E8339
:104A30008091CC019091CD0198878F83CE01019612
:104A4000A0CF86EC91E00E94670D66EC71E00E94B9
:104A50008C0E8816990680F6FE2CEE2009F4A0CF65
:104A6000E090C601D090C7014091C9015091CA01A0
:104A70006D2D8E2D0E941707811128C0F8018181AC
:104A80008D1124C080818E1121C02091CC013091E4
:104A9000CD018681978128173907C1F480912504BB
:104AA00082FD49CF9091CB0190FD45CF907F09F4D5
:104AB00042CF8091CB018583903F09F439CF982F65
:104AC000907F905F8F70892B858332CFC8010E94C1
:104AD000270D811158CF8091CB0181608093CB014C
:104AE000C8010E949D19A3CEEE2009F459CFC80138
:104AF0000E94270DF82E882309F452CF88E0F80190
:104B0000A6ECB1E001900D928A95E1F78091C60183
:104B10009091C7010E941A0D0E943B2388CEA0E10C
:104B2000B0E0E5E9F5E20C94483429873A874B87F1
:104B30005C876D877E878F87988BCE0109960E9450
:104B40009C2381112FC088E0FE013996DE01119669
:104B500001900D928A95E1F74C855D856A8589857E
:104B60000E94170781111EC0A091CE01B0E0CD01B7
:104B700001968770992720910F0228171906E1F0F6
:104B800093E0AA0FBB1F9A95E1F7A153BE4F98E09F
:104B9000FE01319601900D929A95E1F78093CE0136
:104BA0000E94850A80910F029091CE01891312C054
:104BB0006096E2E00C9464340E94D3101092CE010F
:104BC00010920F0288E0E6ECF1E0DF011D928A9579
:104BD000E9F7E8CFB8E08B9FC001112481539E4FC5
:104BE0000E949C23882321F380910F0290E001967C
:104BF0008770992780930F02D5CFEF92FF920F9382
:104C00001F93CF93DF9380913304882361F0C09189
:104C100032048CE0F82E80913304C81748F01092CB
:104C2000330410923204CDB7DEB7E6E00C94603462
:104C3000EE24E394EC0EE09232040C2F10E0CF9DB2
:104C4000E0011124CC5CDB4F4B815C816981888160
:104C50000E94170781111DC08E819F81892B21F42D
:104C600088859985019651F4288139814A815B8133
:104C70006C817D818E819F810E948F25F09EF00145
:104C8000F19EF00D1124EC5CFB4F14821382109204
:104C90003005CE2DC0CF1092D7041092D6041092BA
:104CA00010018091D5048093D4040E9450070E9483
:104CB000FD250895B0E0A0E0E0E6F6E20C9439347A
:104CC000C091D40497E0892E01E010E02CE0322E50
:104CD0003EEF932E442443948091D5048C1309C055
:104CE0000E94FD250E945007CDB7DEB7E1E10C948C
:104CF0005534D0E0FE01EE0FFF1FE453FB4F8081DF
:104D00009181889ED001899EB00D1124AC56BB4F75
:104D100014962C911497211158C050903304E4E359
:104D2000F4E030E020E0712C5D01251508F04BC067
:104D3000E284F384D501CD90DC906FEF7FEF612C9E
:104D4000462D50E0DA01AA0FBB1FAC0DBD1D0D9022
:104D5000BC91A02D109731F0EA16FB0609F4BA01B8
:104D60006394EECF6F3F7607A9F1D80102C0AA0F76
:104D7000BB1F6A95E2F77A2AB801062C02C0660FBB
:104D8000771F0A94E2F7AB014150510974161506DA
:104D9000F9F4329EF001339EF00D1124EC5CFB4FD0
:104DA000889ED001899EB00D1124AC56BB4F12963F
:104DB0002D913C911397378326839082918291871E
:104DC000808715964C920E9422072196C37084CF4B
:104DD000148213822F5F3F4F3C96A7CFA9E1B0E02A
:104DE000E4EFF6E20C943834942F498B252F5A8B3C
:104DF0006B8B7C8B8D8B4C895D89622F892F0E94F8
:104E00001707811109C08091A6019091A701019611
:104E10009093A7018093A6018B8981111092300590
:104E20001D861E861F86188A85E0FE017196DE01AA
:104E3000199601900D928A95E1F78091FC0482FF0A
:104E40001EC080910A0490910B04892BC1F00E942E
:104E50002C062091100230911102821B930B20919D
:104E60000A0430910B048217930720F080911202FC
:104E700082FFE2C10E94200A81110E94E6094C854E
:104E80005D856A8589850E941707811111C061E0DF
:104E9000CE0109960E94670D6C018B8527EFC21623
:104EA0002CE5D20681F4882321F181E08093100162
:104EB00029853A854B855C856D857E858F859889AA
:104EC0000E948F25C6C038EFC3163CE5D30629F4EF
:104ED000882379F00E944B26EBCF49EFC4164CE5AE
:104EE000D40639F4882329F0809110018111F2CF82
:104EF000DCCF04E914E0512CB12CA12C2224239402
:104F0000312C2EEF422EF8014081518188248A9461
:104F1000982C20E0822F90E0FC01EE0FFF1FE40FA1
:104F2000F51F608171816115710531F0C616D706D4
:104F300009F44C012F5FEECFF12CFFEF8F169F0687
:104F400009F449C0F8014481F09010018F2D4111FE
:104F500080E0F82FF170FF2EF801E58086819B85B7
:104F6000992309F4F8C0FF2009F4F5C060901E04ED
:104F700070901F04E11013C0A101082C01C0440F60
:104F80000A94EAF7842B868380913004909131044F
:104F90008615970520F47092310460923004C101A7
:104FA00002C0880F991F2A95E2F70197F801268120
:104FB0002817190681F48091D6049091D7040097A0
:104FC00009F44BC00E9411066816790608F045C026
:104FD00021E0F80124835F28FFEFAF1ABF0A095FC1
:104FE0001F4F28E0A216B10409F08DCF8B858823CE
:104FF00009F40DC1552009F40AC10E942C069093B2
:10500000D7048093D60480913304883010F591E062
:10501000980F9093330498E0FE013996DE011196C3
:1050200001900D929A95E1F73CE0839FC001112415
:105030008C5C9B4F28E0FE013196DC0101900D92C3
:105040002A95E1F72FEF3FEFFC0131872087D386C8
:10505000C2866996E2E10C9454348091D404509154
:10506000D504982FF0E0E0E0851314C09093D404A9
:10507000E017F10709F4AFCF90E0FC01EE0FFF1F3E
:10508000E453FB4FB182A0820196837099278093ED
:10509000D504A1CF682E712CF301EE0FFF1FE4534E
:1050A000FB4F2081318147E0429FD001439FB00DEB
:1050B0001124AC56BB4F6D917C911197798F688FFD
:1050C00040E020E030E0E32FF0E0EE0FFF1F688DBE
:1050D000798DE60FF71F8080918081149104E1F0B3
:1050E000F8010190F081E02DFF8BEE8B20E005C0F0
:1050F0008616970609F44F2D2F5FE22FF0E0EE0F92
:10510000FF1F6E897F89E60FF71F6081718161152E
:10511000710571F73F5FD7CF4423D1F0F801231712
:1051200008F0FD0121E024830E171F0721F490935E
:10513000D404F42E50CF981305C0AE17BF0711F456
:105140009F5F937093012F5F3F4F822F83708CCFAF
:10515000F0E0E0E0F7CF90E0E11020C0B10102C044
:10516000660F771F2A95E2F79B01215031098217BC
:10517000930731F4442309F448C0C5010E94220773
:10518000C101082C01C0880F0A94EAF7982F909566
:10519000F801868189238683FE2C1DCF9C01082C73
:1051A00002C0359527950A94E2F7A9014170552769
:1051B000BC016150710986239723892B11F5452B7A
:1051C00001F1F80182819381892BC1F01B821C823D
:1051D0001D821E8249824A820E942C068160582FBD
:1051E0009D838C83F801828193818F8398872981A5
:1051F0003A814B816D817E810E948F25F801158255
:10520000BFCFF22FF170EF2EBBCFEF2CB9CF909123
:10521000D4048091D504981731F00E945A26552065
:1052200009F446CE16CF0E94FD251092D7041092A5
:10523000D6040E945007F3CF82E00E947A101ACE63
:10524000A5E0B0E0E6E2F9E20C9448349093E40380
:105250008093E303811520E2920730F40E94A616A2
:105260002596E2E00C94643480EF89838A831B8264
:105270000E942C068160782F9D838C8349815A81FE
:105280006B818D810E94EE26EBCF0F931F93CF93FE
:10529000DF938C01EB016CE872E08C2F0E94780E9A
:1052A000892BA1F480912604909127040E94290C57
:1052B000DD27CC57DD4F8881F801128218828330B8
:1052C000F1F048F4813059F0823081F0DF91CF91D4
:1052D0001F910F9108958430B9F08530B9F780910E
:1052E0008C0290918D02009789F306C080918E0206
:1052F00090918F02009799F30E942029E7CF809127
:10530000900290919102F6CF809192029091930237
:10531000009791F720918C0230918D0280918E023E
:1053200090918F0221153105F1F2009729F7C901FB
:10533000E3CFA5E0B0E0EFE9F9E20C9448349093B4
:10534000E4038093E303811520E2920730F40E9486
:105350004D182596E2E00C94643480EF89838A83AB
:1053600081E08B830E942C068160782F9D838C8343
:1053700049815A816B818D810E94EE26EACFCF93BD
:10538000DF93EC010E9499298091260490912704D3
:105390000E94290CCE010E942029DF91CF9108950F
:1053A0000F931F93CF93DF938C01862F6CE872E0ED
:1053B0000E94780E892BB1F4C0918C02D0918D029D
:1053C000209781F0F8018281833051F4CE010E9450
:1053D000BF29CE010E94BF29CE010E94BF2902C071
:1053E0008430D0F7DF91CF911F910F9108950F93E3
:1053F0001F93CF93DF938C01EB016CE872E08C2F4D
:105400000E94780E892B09F05CC0FE01FF27D801AD
:1054100012968C911297EC57FD4F8130B9F4159686
:105420009C9192FF02C080830AC090FFFCCF82E073
:10543000808380918E0290918F020097B9F48091C1
:105440008C0290918D020097E1F110C08230B9F585
:1054500015968C9182FD28C080FD0BC083E080836F
:105460008091900290919102009701F10E949929F8
:1054700028C084E0808380919202909193020097EB
:10548000A9F780918C0290918D020097F9F00E940B
:10549000BF2980918E0290918F02009739F78091F9
:1054A0008C0290918D02E2CF85E0808380918C0206
:1054B00090918D02009729F00E94BF29F0CF86E0DD
:1054C0008083DF91CF911F910F91089580918E027B
:1054D00090918F02B8CF1F920F920FB60F921124A6
:1054E0002F933F934F935F936F937F938F939F93EC
:1054F000AF93BF93CF93DF93EF93FF93D091E900E6
:10550000DF708091EC00C82FC17080FDC0E8109260
:10551000E9008091F000877F8093F00078940E94EA
:10552000E9101092E9008091F00088608093F0000B
:10553000CD2BCF70C093E900FF91EF91DF91CF9118
:10554000BF91AF919F918F917F916F915F914F919B
:105550003F912F910F900FBE0F901F9018951F92A3
:105560000F920FB60F9211242F933F934F935F9397
:105570006F937F938F939F93AF93BF93EF93FF931B
:105580008091E10082FF09C08091E20082FF05C0A6
:105590008091E1008B7F8093E1008091DA0080FFB1
:1055A00024C08091D80080FF20C08091DA008E7FD7
:1055B0008093DA008091D90080FF9DC080E189BD91
:1055C00082E189BD09B400FEFDCF81E080932E0504
:1055D00080910005811109C00E9460040E9453055A
:1055E0008091E20084608093E2008091E10080FF7E
:1055F00017C08091E20080FF13C08091E2008E7F8F
:105600008093E2008091E20080618093E2008091CB
:10561000D80080628093D80019BC85E080932E0565
:105620008091E10084FF2BC08091E20084FF27C0BD
:1056300080E189BD82E189BD89B5982F917080FF95
:10564000FBCF8091D8008F7D8093D8008091E100BE
:105650008F7E8093E1008091E2008F7E8093E20054
:105660008091E20081608093E2008091250588238B
:1056700009F447C084E080932E0580912E05809127
:10568000E10083FF27C08091E20083FF23C0809167
:10569000E100877F8093E10082E080932E051092E5
:1056A00025058091E1008E7F8093E1008091E200EA
:1056B0008E7F8093E2008091E20080618093E2001F
:1056C00042E060E080E00E9421058091F000886067
:1056D0008093F000FF91EF91BF91AF919F918F91D7
:1056E0007F916F915F914F913F912F910F900FBEDE
:1056F0000F901F90189519BC10922E05109200055E
:1057000074CF8091E30087FD93E090932E05B5CF91
:1057100078941F921FB61F9211248F939F93AF937B
:10572000BF938091F7049091F804A091F904B0918F
:10573000FA040196A11DB11D8093F7049093F8041B
:10574000A093F904B093FA04BF91AF919F918F9108
:105750001F901FBE1F9018951F921FB61F921124F5
:105760008F939F93AF93BF938091F604811113C0E1
:105770008091F7049091F804A091F904B091FA0493
:105780004196A11DB11D8093F7049093F804A09356
:10579000F904B093FA04BF91AF919F918F911F903C
:1057A0001FBE1F901895CDB7DEB7C055D1090FB6F3
:1057B000F894DEBF0FBECDBF85B7806885BF85B7C3
:1057C000806885BF84B7877F84BF0FB6F894A8959B
:1057D00080916000886180936000109260000FBE2D
:1057E00080E890E00FB6F894809361009093610098
:1057F0000FBE89E098E090938101809380010E9420
:10580000E4070E94360F0E94AA0E0E94330C209AD1
:10581000549A3E9A0E9460040E9453058091E200CF
:1058200084608093E200789480912E058823A1F013
:105830001091E9001F709091EC00892F817090FD0C
:1058400080E8182B1092E9008091E80083FD0E9407
:10585000E9101F701093E90082E084BD93E095BDCC
:105860009AEF97BD80936E000E94750D811102C062
:105870000E9494140BE411E0D8018D918D018F3FAB
:1058800011F00E940B08B1E003351B07A9F703E5EF
:1058900011E02CE5E22E21E0F22EF80181918F013A
:1058A0008F3F11F00E940B08E016F106B1F780E17E
:1058B000E4E7F2E0DF01282F1D922A95E9F7EBE3F8
:1058C000F2E0DF011D928A95E9F790E080E00E9406
:1058D000C134883E9E4F21F40E94750D811102C093
:1058E0000E94321982E090E00E94B93480934D0208
:1058F0000E948E0D9093FC048093FB040E94E2159D
:10590000EFE3FCE93197F1F700C000000E94E215D7
:105910008091740280FF08C06FEF7FEF90E080E01D
:105920000E94E5340E94050C83E090E00E94B934A7
:105930000E94CE1080912F050E94790B82E0809307
:105940006C024EE651E09CE6A92E91E0B92E85014D
:105950009A0161E070E0D9018D919D01E82FE295F7
:10596000EF70F0E0D1A08F707B0101C0EE0C8A9542
:10597000EAF79E2D90959D2191A382A18E2982A365
:10598000F80181918F01E82FE295EF70F0E0D1A04E
:105990008F707B0101C0EE0C8A95EAF79E2D9095E1
:1059A0009D2191A382A18E2982A3A057B14099F68F
:1059B0008FE891E00197F1F700C0000010916C02B0
:1059C0006DE672E0FB018E2F861B811708F47BC009
:1059D00081E091E09093F3048093F20484E8282E10
:1059E00082E0382E80912E0500E4F02E00E112E1D5
:1059F000853009F4C8C00E94E2151EE4A12E12E011
:105A0000B12E04E712E0D801F501219131918D9179
:105A10009D9142E0EE35F40709F4BFC0281739071D
:105A2000A1F3B4E78B2EB2E09B2E512CD401ED9064
:105A3000FD904D01F501619071905F016E147F043E
:105A4000D9F16E247F24412CCC24C394D12CC301E2
:105A50008C219D21892B31F12D964FAE2D972E96BD
:105A60005FAE2E9721E0C7018C219D21892B09F47F
:105A700020E02F962FAF2F970E942C068160782F61
:105A800061969FAF8EAF61972D964FAD2D972E9655
:105A90005FAD2E972F966FAD2F9761968FAD619763
:105AA0000E94EE264394CC0CDD1CF9E04F12CFCFC0
:105AB000F5013297F182E082539428E05212B6CF7A
:105AC0000E9420069CC0DA012D91AD01822F8295A3
:105AD0008F7090E0DC0190968C9190E02F7002C066
